:020000040800F2
:1000000000000110114B0008614B0008614B000813
:10001000614B0008614B0008614B000800000000C4
:10002000000000000000000000000000614B00081C
:10003000614B000800000000614B0008614B0008A4
:10004000614B0008614B0008614B0008614B0008E0
:10005000614B0008614B0008614B0008614B0008D0
:10006000614B0008614B0008614B0008614B0008C0
:10007000614B0008614B0008614B0008614B0008B0
:10008000614B0008614B0008614B0008614B0008A0
:10009000614B0008614B0008614B0008614B000890
:1000A000614B0008614B0008614B0008614B000880
:1000B000614B0008614B0008614B0008614B000870
:1000C000614B0008614B0008614B0008614B000860
:1000D000614B0008B9050008614B0008614B00083E
:1000E000614B0008614B0008614B0008614B000840
:1000F000614B0008614B0008614B0008614B000830
:10010000614B0008614B0008614B0008614B00081F
:10011000614B0008614B0008614B0008614B00080F
:10012000614B0008614B0008614B0008614B0008FF
:10013000614B0008614B0008614B0008614B0008EF
:10014000614B0008614B0008614B0008614B0008DF
:10015000614B0008614B0008614B0008614B0008CF
:10016000614B0008614B0008614B0008614B0008BF
:10017000614B0008614B0008614B0008614B0008AF
:08018000614B0008614B00080F
:1001880010B5054C237833B9044810B10448AFF3CF
:1001980000800121217010BD5804002000000000DB
:1001A800FC50000808B5064B1BB106480649AFF3DA
:1001B80000800648016811B1054A02B1904708BDA0
:1001C80000000000FC5000085C04002054040020DB
:1001D80000000000154B002B08BF134B9D46A3F5EC
:1001E800803A00218B460F461348144A121A04F02D
:1001F8008DFD0F4B002B00D098470E4B002B00D0E5
:1002080098470020002104460D4600200C49002292
:10021800002304F0A3FC04F02FFD2046294600F03B
:10022800E9F804F0F1FC00BF00000800000000003D
:100238000000000000000000580400208004002096
:10024800314C000880B485B000AF0346FB714FF015
:100258000003FB60FB79012B29D140F27443C2F201
:1002680000035B784FF0640202FB03F3A3F5965397
:10027800FA68D318FB6040F27443C2F200039B781B
:100288001A4613464FEA83039B184FEA4303A3F524
:10029800F073FA68D318FB6040F27443C2F20003AB
:1002A800DB78A3F13003FA68D318FB6028E040F24A
:1002B8007443C2F200035B794FF0640202FB03F35C
:1002C800A3F59653FA68D318FB6040F27443C2F260
:1002D80000039B791A4613464FEA83039B184FEA9B
:1002E8004303A3F5F073FA68D318FB6040F2744334
:1002F800C2F20003DB79A3F13003FA68D318FB607C
:10030800FB68184607F11407BD4680BC704700BF5C
:1003180080B582B000AF4FF00100FFF793FF78601F
:100328007B68B3F5FA7F02DD4FF4FA737B6040F225
:100338007443C2F200031B78662B0DD14FF400639F
:10034800C4F200037A685A634FF40063C4F20003EE
:100358004FF000029A6313E040F27443C2F20003C4
:100368001B78622B0CD14FF40063C4F200034FF0EA
:1003780000025A634FF40063C4F200037A689A6378
:100388004FF00200FFF75EFF78607B68B3F5FA7FF5
:1003980002DD4FF4FA737B6040F27443C2F200034B
:1003A8001B79662B0DD14FF40063C4F200037A6801
:1003B800DA634FF40063C4F200034FF000021A64DA
:1003C80013E040F27443C2F200031B79622B0CD194
:1003D8004FF40063C4F200034FF00002DA634FF4F5
:1003E8000063C4F200037A681A6407F10807BD467F
:1003F80080BD00BF80B500AF00F094F9FEE700BFF4
:1004080080B582B000AF4FF4A06000F06FFB4FF0F2
:1004180003037B714FF00203BB714FF025033B715F
:100428004FF00103FB7107F10403184600F072FB5B
:1004380007F10807BD4680BD80B582B000AF4FF018
:1004480008004FF0010101F05FFF45F2EA03C0F632
:1004580000031B883B604FF002033B714FF003031E
:100468007B714FF00003BB714FF00103FB713B46FA
:100478004FF44060C4F20200194601F0CDF94FF480
:100488004060C4F202004FF00C014FF0020201F08C
:1004980051FB4FF44060C4F202004FF00D014FF0E1
:1004A800020201F047FB4FF44060C4F202004FF033
:1004B8000E014FF0020201F03DFB4FF44060C4F220
:1004C80002004FF00F014FF0020201F033FB07F179
:1004D8000807BD4680BD00BF80B588B000AF786012
:1004E8004FF010004FF0010101F0B6FF4FF002008D
:1004F8004FF0010101F008FF4FF0C003BB614FF05E
:1005080002033B774FF002037B774FF00003BB7782
:100518004FF00103FB7707F118034FF48060C4F232
:100528000200194601F078F94FF48060C4F2020025
:100538004FF006014FF0070201F0FCFA4FF480601B
:10054800C4F202004FF007014FF0070201F0F2FA7F
:100558007B68BB604FF00003BB814FF00003FB8159
:100568004FF000033B824FF00003BB824FF00C03B7
:100578007B8207F108034FF48050C4F2010019464A
:1005880000F020FC4FF48050C4F2010040F22551E5
:100598004FF0010200F07CFF4FF48050C4F20100DC
:1005A8004FF0010100F04AFD07F12007BD4680BD6C
:1005B80080B582B000AF4FF48050C4F201004FF014
:1005C800200100F0B7FF0346012B30D14FF48050D3
:1005D800C4F2010000F0C6FD0346FB71FB79242B31
:1005E80014D040F27443C2F200031A7A114640F262
:1005F8007443C2F20003F879585402F10103DAB2E5
:1006080040F27443C2F200031A7210E0FFF780FE52
:1006180040F27443C2F200034FF000021A724FF422
:100628008050C4F201004FF0230100F087FD07F16C
:100638000807BD4680BD00BF80B588B000AF4FF049
:1006480004004FF0010101F0DDFE40F2F313BB613D
:100658004FF01403BB824FF00003BB834FF000033D
:10066800FB8207F114034FF40060C4F2000019463E
:1006780002F0ACFC4FF060033B804FF001037B803D
:100688004FF00003BB604FF00003BB813B464FF4C3
:100698000060C4F20000194602F04EFE4FF40060FC
:1006A800C4F200004FF0080103F092F93B464FF402
:1006B8000060C4F20000194602F0BCFE4FF400606E
:1006C800C4F200004FF0080103F09EF93B464FF4D6
:1006D8000060C4F20000194602F040FF4FF40060C9
:1006E800C4F200004FF0080103F0AEF93B464FF4A6
:1006F8000060C4F20000194602F0C0FF4FF4006029
:10070800C4F200004FF0080103F0BAF94FF400609A
:10071800C4F200004FF0010102F0EEFD07F12007DE
:10072800BD4680BD80B500AFFFF786FE4FF416507A
:10073800FFF7D2FEFFF764FEFFF77EFF40F2744337
:10074800C2F200034FF000021A7280BD80B500AFFC
:100758004FF46053C4F202034FF46052C4F2020231
:10076800126842F001021A604FF46053C4F20203A7
:100778004FF000029A604FF46053C4F202034FF442
:100788006052C4F20202126822F0847222F48032AB
:100798001A604FF46053C4F2020343F21002C2F22B
:1007A80000425A604FF46053C4F202034FF460529F
:1007B800C4F20202126822F480221A604FF46053D5
:1007C800C4F202034FF00002DA6000F0C1F84FF4FF
:1007D8006D43CEF200034FF000629A6080BD00BF07
:1007E80080B487B000AF4FF000033B614FF00003C7
:1007F8007B614FF00203FB604FF00003BB604FF0DA
:1008080002037B604FF46053C4F202039B6803F059
:100818000C033B613B69042B0DD0082B15D0002B32
:1008280069D140F20403C2F200034FF41052C0F23F
:10083800F4021A6069E040F20403C2F2000347F6CA
:100848004002C0F27D121A605FE04FF46053C4F2B8
:1008580002035B6803F480034FEA9353BB604FF4D1
:100868006053C4F202035B6803F03F037B60BB681C
:10087800002B14D047F64003C0F27D137A68B3FB0F
:10088800F2F24FF46053C4F20203596847F6C0739A
:100898000B404FEA931303FB02F37B6113E04FF421
:1008A8001053C0F2F4037A68B3FBF2F24FF46053CA
:1008B800C4F20203596847F6C0730B404FEA93131A
:1008C80003FB02F37B614FF46053C4F202035B68DD
:1008D80003F440334FEA134303F101034FEA4303A0
:1008E800FB607A69FB68B2FBF3F240F20403C2F2E0
:1008F80000031A6009E040F20403C2F200034FF457
:100908001052C0F2F4021A6000BF4FF46053C4F2F0
:1009180002039B6803F0F0034FEA131240F2080346
:10092800C2F200039B5CDBB23B6140F20403C2F2FB
:1009380000031A683B6922FA03F240F20403C2F288
:1009480000031A6007F11C07BD4680BC704700BF52
:1009580080B483B000AF4FF000037B604FF000031A
:100968003B604FF46053C4F202034FF46052C4F288
:100978000202126842F480321A604FF46053C4F2E3
:1009880002031B6803F400333B607B6803F1010337
:100998007B603B68002B03D17B68B3F5A06FECD17B
:1009A8004FF46053C4F202031B6803F40033002BB6
:1009B80003D04FF001033B6002E04FF000033B60BF
:1009C8003B68012B40F082804FF46053C4F202036D
:1009D8004FF46052C4F20202126C42F080521A6460
:1009E8004FF4E043C4F200034FF4E042C4F20002C3
:1009F800126842F480421A604FF46053C4F2020352
:100A08004FF46052C4F2020292689A604FF4605345
:100A1800C4F202034FF46052C4F20202926842F434
:100A280000429A604FF46053C4F202034FF46052DC
:100A3800C4F20202926842F4A0529A604FF46053E2
:100A4800C4F2020345F20842C0F240725A604FF401
:100A58006053C4F202034FF46052C4F202021268F7
:100A680042F080721A6000BF4FF46053C4F2020370
:100A78001B6803F00073002BF6D04FF47053C4F2D8
:100A8800020340F205621A604FF46053C4F2020395
:100A98004FF46052C4F20202926822F003029A6094
:100AA8004FF46053C4F202034FF46052C4F20202DE
:100AB800926842F002029A6000BF4FF46053C4F299
:100AC80002039B6803F00C03082BF6D107F10C070F
:100AD800BD4680BC704700BF2C51000800000020B4
:100AE80054040020580400208004002080B483B0FF
:100AF80000AF78604FF46D43CEF200037A6842F09D
:100B0800BF6242F40032DA6007F10C07BD4680BCD0
:100B1800704700BF80B485B000AF78604FF0000325
:100B2800FB734FF00003BB734FF00F037B737B68BD
:100B3800DB78002B45D04FF46D43CEF20003DB6821
:100B48006FEA030303F4E0634FEA1323FB73FB7BB1
:100B5800C3F10403BB737A7BFB7B42FA03F37B7319
:100B68007B685B781A46BB7B02FA03F3FB737B68EE
:100B78009A787B7B1340DAB2FB7B1343FB73FB7BD6
:100B88004FEA0313FB734FF46143CEF200037A6814
:100B980012789B18FA7B83F800234FF46143CEF256
:100BA80000037A6812784FEA5212D2B2796809784B
:100BB80001F01F014FF0010000FA01F143F8221083
:100BC80014E04FF46143CEF200037A6812784FEADA
:100BD8005212D2B27968097801F01F014FF0010072
:100BE80000FA01F102F1200243F8221007F114077C
:100BF800BD4680BC704700BF80B483B000AF78604A
:100C080039604FF46D43CEF200033A6822F0604237
:100C180022F07F0279680A439A6007F10C07BD4603
:100C280080BC704780B483B000AF02460B46FA71AF
:100C3800BB71BB79002B0CD04FF46D43CEF200038F
:100C48004FF46D42CEF200021169FA790A431A6133
:100C58000DE04FF46D43CEF200034FF46D42CEF237
:100C680000021169FA796FEA02020A401A6107F173
:100C78000C07BD4680BC704780B483B000AF786075
:100C88007B68042B0CD14EF21003CEF200034EF217
:100C98001002CEF20002126842F004021A600BE061
:100CA8004EF21003CEF200034EF21002CEF2000212
:100CB800126822F004021A6007F10C07BD4680BCD6
:100CC800704700BF80B582B000AF78607A684FF493
:100CD8008053C4F201039A420CD14FF010004FF038
:100CE800010101F08BFC4FF010004FF0000101F002
:100CF80085FC62E07A684FF48843C4F200039A42A4
:100D08000CD14FF400304FF0010101F04DFC4FF4CD
:100D180000304FF0000101F047FC4EE07A684FF4D4
:100D28009043C4F200039A420CD14FF480204FF054
:100D3800010101F039FC4FF480204FF0000101F06F
:100D480033FC3AE07A684FF49843C4F200039A42BD
:100D58000CD14FF400204FF0010101F025FC4FF4B5
:100D680000204FF0000101F01FFC26E07A684FF4E4
:100D7800A043C4F200039A420CD14FF480104FF004
:100D8800010101F011FC4FF480104FF0000101F057
:100D98000BFC12E07A684FF4A053C4F201039A42A4
:100DA8000BD14FF020004FF0010101F027FC4FF06C
:100DB80020004FF0000101F021FC07F10807BD46B3
:100DC80080BD00BF80B58AB000AF786039604FF051
:100DD80000037B624FF000033B624FF00003FB61AE
:100DE8004FF00003BB617B681B8A9BB27B627B6A06
:100DF80023F440537B623B68DB887A6A13437B6247
:100E08007B6A9AB27B681A827B689B899BB27B62F9
:100E18007B6A23F4B05323F00C037B623B689A8807
:100E28003B681B8913439AB23B685B8913439BB2A7
:100E38007A6A13437B627B6A9AB27B689A817B6881
:100E48009B8A9BB27B627B6A23F440737B623B681C
:100E58009B897A6A13437B627B6A9AB27B689A821F
:100E680007F10803184601F0FFF87A684FF4805339
:100E7800C4F201039A4206D07A684FF4A053C4F230
:100E880001039A4202D17B693B6201E03B693B6204
:100E98007B689B899BB29BB21BB2002B0FDA3A6A24
:100EA80013464FEA83039B184FEA83029A183B685C
:100EB8001B684FEA4303B2FBF3F3FB610EE03A6AA7
:100EC80013464FEA83039B184FEA83029A183B683C
:100ED8001B684FEA8303B2FBF3F3FB61FA6948F23C
:100EE8001F53C5F2EB13A3FB02134FEA53134FEA48
:100EF80003137B627B6A4FEA13134FF0640202FB11
:100F080003F3FA69D31ABB617B689B899BB29BB2D6
:100F18001BB2002B12DABB694FEAC30303F132029A
:100F280048F21F53C5F2EB13A3FB02134FEA531306
:100F380003F007037A6A13437B6211E0BB694FEA47
:100F4800031303F1320248F21F53C5F2EB13A3FB5C
:100F580002134FEA531303F00F037A6A13437B62B9
:100F68007B6A9AB27B681A8107F12807BD4680BD63
:100F780080B483B000AF78607B684FF416521A6073
:100F88007B684FF000029A807B684FF00002DA809D
:100F98007B684FF000021A817B684FF00C025A817F
:100FA8007B684FF000029A8107F10C07BD4680BCB0
:100FB800704700BF80B485B000AF786039604FF0EB
:100FC8000003FB607B681B8A9BB2FB60FB6823F411
:100FD8007063FB603B681A883B685B8813439AB26E
:100FE8003B689B8813439AB23B68DB8813439BB2E8
:100FF800FA681343FB60FB689AB27B681A8207F1B0
:101008001407BD4680BC704780B483B000AF7860D9
:101018007B684FF000021A807B684FF000025A800C
:101028007B684FF000029A807B684FF00002DA80FC
:1010380007F10C07BD4680BC704700BF80B483B081
:1010480000AF78600B46FB70FB78002B08D07B68FC
:101058009B899BB243F400539AB27B689A8107E05C
:101068007B689B899BB223F400539AB27B689A8170
:1010780007F10C07BD4680BC704700BF80B483B041
:1010880000AF78600B46FB707B681B8B9BB223F02C
:10109800FF039AB27B681A837B681B8B9AB2FB7832
:1010A8009BB213439AB27B681A8307F10C07BD46BB
:1010B80080BC704780B483B000AF78600B46FB708B
:1010C800FB78002B0AD07B689B899BB26FEA43436D
:1010D8006FEA53439AB27B689A8109E07B689B89DF
:1010E8009BB24FEA43434FEA53439AB27B689A81D3
:1010F80007F10C07BD4680BC704700BF80B483B0C1
:1011080000AF78600B46FB70FB78002B08D07B683B
:101118009B8A9BB243F400639AB27B689A8207E089
:101128007B689B8A9BB223F400639AB27B689A829D
:1011380007F10C07BD4680BC704700BF80B483B080
:1011480000AF78600B467B807B884FEAC3534FEA39
:10115800D3539AB27B689A8007F10C07BD4680BCCE
:10116800704700BF80B483B000AF78607B689B880D
:101178009BB24FEAC3534FEAD3539BB2184607F1C9
:101188000C07BD4680BC704780B483B000AF786060
:101198000B46FB707B681B8A9BB223F00F039AB245
:1011A8007B681A827B681B8A9AB2FB789BB21343CE
:1011B8009AB27B681A8207F10C07BD4680BC70475B
:1011C80080B483B000AF78600B46FB70FB78002BCF
:1011D80008D07B689B899BB243F002039AB27B6874
:1011E8009A8107E07B689B899BB223F002039AB23D
:1011F8007B689A8107F10C07BD4680BC704700BF29
:1012080080B483B000AF78600B467B807B689B8995
:101218009BB223F400639AB27B689A817B689B89AE
:101228009AB27B8813439AB27B689A8107F10C07BC
:10123800BD4680BC704700BF80B483B000AF786003
:101248000B467B807B681B8A9BB223F020039AB2F3
:101258007B681A827B681B8A9AB27B8813439AB28E
:101268007B681A8207F10C07BD4680BC704700BF37
:1012780080B483B000AF78600B46FB70FB78002B1E
:1012880008D07B681B8A9BB243F480439AB27B6880
:101298001A8207E07B681B8A9BB223F480439AB2C8
:1012A8007B681A8207F10C07BD4680BC704700BFF7
:1012B80080B483B000AF78607B689B899BB243F0B1
:1012C80001039AB27B689A8107F10C07BD4680BC7E
:1012D800704700BF80B483B000AF78600B46FB70E6
:1012E800FB78002B08D07B689B8A9BB243F00803ED
:1012F8009AB27B689A8207E07B689B8A9BB223F04C
:1013080008039AB27B689A8207F10C07BD4680BC35
:10131800704700BF80B483B000AF78600B46FB70A5
:101328007B681B8B9BB2DBB29AB27B681A837B68A3
:101338001B8B9AB2FB789BB24FEA03239BB21343F1
:101348009AB27B681A8307F10C07BD4680BC7047C8
:1013580080B483B000AF78600B46FB70FB78002B3D
:1013680008D07B689B8A9BB243F020039AB27B68C3
:101378009A8207E07B689B8A9BB223F020039AB28B
:101388007B689A8207F10C07BD4680BC704700BF96
:1013980080B483B000AF78600B46FB70FB78002BFD
:1013A80008D07B689B8A9BB243F010039AB27B6893
:1013B8009A8207E07B689B8A9BB223F010039AB25B
:1013C8007B689A8207F10C07BD4680BC704700BF56
:1013D80080B483B000AF78600B467B807B689B8AC3
:1013E8009BB223F004039AB27B689A827B689B8A3B
:1013F8009AB27B8813439AB27B689A8207F10C07EA
:10140800BD4680BC704700BF80B483B000AF786031
:101418000B46FB70FB78002B08D07B689B8A9BB23D
:1014280043F002039AB27B689A8207E07B689B8A42
:101438009BB223F002039AB27B689A8207F10C07E9
:10144800BD4680BC704700BF80B483B000AF7860F1
:1014580013460A467A807B707B78002B08D07B681D
:101468009B8A9AB27B8813439AB27B689A820AE075
:101478007B689B8A9AB27B886FEA03039BB213400E
:101488009AB27B689A8207F10C07BD4680BC704708
:1014980080B487B000AF786013460A467A807B70C4
:1014A8004FF000033B614FF00003FB604FF0000377
:1014B800BB604FF000037B617B687B617B88DBB29C
:1014C8004FEA5313DBB23B617B8803F01F03FB60D9
:1014D800FB684FF0010202FA03F3BB603B69012B82
:1014E80004D17B6903F10C037B610BE03B69022BA0
:1014F80004D17B6903F110037B6103E07B6903F18D
:1015080014037B617B78002B06D07B697A691168AC
:10151800BA680A431A6007E07B697A691168BA6891
:101528006FEA02020A401A6007F11C07BD4680BC38
:10153800704700BF80B485B000AF78600B467B80F1
:101548004FF00003FB737B681B889AB27B881340BB
:101558009BB2002B03D04FF00103FB7302E04FF066
:101568000003FB73FB7B184607F11407BD4680BCDC
:10157800704700BF80B483B000AF78600B467B80B3
:101588007B886FEA03039AB27B681A8007F10C071D
:10159800BD4680BC704700BF80B487B000AF78609C
:1015A8000B467B804FF00003FB604FF000037B612C
:1015B8004FF00003BB604FF00003FB747B88DBB285
:1015C8004FEA5313DBB2BB607B8803F01F037B61D8
:1015D8007B694FF0010202FA03F37B61BB68012BC0
:1015E80006D17B689B899BB27A6913407B610FE0C7
:1015F800BB68022B06D17B681B8A9BB27A691340B1
:101608007B6105E07B689B8A9BB27A6913407B61AA
:101618007B884FEA13239BB2FB60FB684FF0010203
:1016280002FA03F3FB607B681B889BB2FA681340DD
:10163800FB607B69002B06D0FB68002B03D04FF0C2
:101648000103FB7402E04FF00003FB74FB7C1846B7
:1016580007F11C07BD4680BC704700BF80B485B049
:1016680000AF78600B467B804FF00003FB814FF0A2
:101678000003BB817B884FEA1323FB81FB894FF072
:10168800010202FA03F3BB81BB896FEA03039AB232
:101698007B681A8007F11407BD4680BC704700BFFD
:1016A80080B582B000AF78607A684FF00003C4F26A
:1016B80002039A420CD14FF001004FF0010100F0F3
:1016C800F5FE4FF001004FF0000100F0EFFE9EE044
:1016D8007A684FF48063C4F202039A420CD14FF047
:1016E80002004FF0010100F0E1FE4FF002004FF060
:1016F800000100F0DBFE8AE07A684FF40063C4F270
:1017080002039A420CD14FF004004FF0010100F09F
:10171800CDFE4FF004004FF0000100F0C7FE76E068
:101728007A684FF44063C4F202039A420CD14FF036
:1017380008004FF0010100F0B9FE4FF008004FF02B
:10174800000100F0B3FE62E07A684FF48053C4F2FF
:1017580002039A420CD14FF010004FF0010100F043
:10176800A5FE4FF010004FF0000100F09FFE4EE084
:101778007A684FF4A053C4F202039A420CD14FF096
:1017880020004FF0010100F091FE4FF020004FF0D3
:10179800000100F08BFE3AE07A684FF4C053C4F2BF
:1017A80002039A420CD14FF040004FF0010100F0C3
:1017B8007DFE4FF040004FF0000100F077FE26E07C
:1017C8007A684FF4E053C4F202039A420CD14FF006
:1017D80080004FF0010100F069FE4FF080004FF0EB
:1017E800000100F063FE12E07A684FF40053C4F27F
:1017F80002039A420BD14FF480704FF0010100F0C0
:1018080055FE4FF480704FF0000100F04FFE07F1D5
:101818000807BD4680BD00BF80B487B000AF7860C0
:1018280039604FF000037B614FF000033B614FF0DC
:101838000003FB604FF000037B6186E07B694FF09B
:10184800010202FA03F33B613B681A683B691340E3
:10185800FB60FA683B699A4273D17B681A687B69B6
:101868004FEA43034FF0030101FA03F36FEA03035E
:101878001A407B681A607B681A683B681B791946AE
:101888007B694FEA430301FA03F31A437B681A6042
:101898003B681B79012B03D03B681B79022B34D1A1
:1018A8007B689A687B694FEA43034FF0030101FAAA
:1018B80003F36FEA03031A407B689A607B689A68AF
:1018C8003B685B7919467B694FEA430301FA03F3E6
:1018D8001A437B689A607B685A687B699BB24FF0B1
:1018E800010101FA03F36FEA03031A407B685A60A7
:1018F8007B685A683B689B7919467B699BB201FAF9
:1019080003F39BB21A437B685A607B68DA687B6989
:101918009BB24FEA43034FF0030101FA03F36FEA66
:1019280003031A407B68DA607B68DA683B68DB7916
:1019380019467B694FEA430301FA03F31A437B68AC
:10194800DA607B6903F101037B617B690F2B7FF60A
:1019580075AF07F11C07BD4680BC704780B483B0E3
:1019680000AF78607B684FF6FF721A607B684FF0B3
:1019780000021A717B684FF000025A717B684FF0C1
:1019880000029A717B684FF00002DA7107F10C07C8
:10199800BD4680BC704700BF80B485B000AF78609A
:1019A8000B467B804FF48033FB607A88FB681343D7
:1019B800FB60FA687B68DA617A887B68DA61FA68C2
:1019C8007B68DA617B68DB69FB607B68DB69FB60ED
:1019D80007F11407BD4680BC704700BF80B485B0CE
:1019E80000AF78600B467B804FF00003FB737B6889
:1019F8001A697B881340002B03D04FF00103FB7357
:101A080002E04FF00003FB73FB7B184607F1140755
:101A1800BD4680BC704700BF80B483B000AF78601B
:101A28007B681B699BB2184607F10C07BD4680BC52
:101A3800704700BF80B485B000AF78600B467B80EC
:101A48004FF00003FB737B685A697B881340002BB7
:101A580003D04FF00103FB7302E04FF00003FB7368
:101A6800FB7B184607F11407BD4680BC704700BFD2
:101A780080B483B000AF78607B685B699BB218461E
:101A880007F10C07BD4680BC704700BF80B483B027
:101A980000AF78600B467B807B687A881A8307F1F1
:101AA8000C07BD4680BC704780B483B000AF786037
:101AB8000B467B807B687A885A8307F10C07BD4602
:101AC80080BC704780B483B000AF786013460A4684
:101AD8007A807B707B78002B03D07B687A881A83A6
:101AE80002E07B687A885A8307F10C07BD4680BC00
:101AF800704700BF80B483B000AF78600B467B802E
:101B08007A887B685A6107F10C07BD4680BC70472C
:101B180080B483B000AF78600B467B807B685A69DD
:101B28007B885A407B685A6107F10C07BD4680BC28
:101B3800704700BF80B485B000AF786013460A468E
:101B48007A807B704FF00003FB604FF00003BB60AE
:101B58007A787B8803F007034FEA830302FA03F3DA
:101B6800FB607B884FEAD3039BB21A467B884FEA17
:101B7800D3039BB219467B6801F1080153F8211081
:101B88007B8803F007034FEA83034FF00F0000FA46
:101B980003F36FEA030319407B6802F1080243F874
:101BA80022107B884FEAD3039BB21A467B6802F166
:101BB800080253F82220FB681343BB607B884FEA76
:101BC800D3039BB21A467B6802F10802B96843F84E
:101BD800221007F11407BD4680BC704780B400AFDF
:101BE8004FF46053C4F202034FF46052C4F202028D
:101BF800126842F001021A604FF46053C4F2020303
:101C08004FF000029A604FF46053C4F202034FF49D
:101C18006052C4F20202126822F0847222F4803206
:101C28001A604FF46053C4F2020343F21002C2F286
:101C380000425A604FF46053C4F202034FF46052FA
:101C4800C4F20202126822F480221A604FF4605330
:101C5800C4F202034FF00002DA60BD4680BC704750
:101C680080B483B000AF0346FB7143F60203C4F2AD
:101C780002034FF000021A7043F60203C4F2020393
:101C8800FA791A7007F10C07BD4680BC704700BF8F
:101C980080B582B000AF4FF000033B604FF0000307
:101CA800FB714FF00003BB714FF0310000F0D2FD23
:101CB8000346BB713B6803F101033B603B68B3F526
:101CC800A06F02D0BB79002BEED04FF0310000F0AE
:101CD800C1FD0346002B03D04FF00103FB7102E066
:101CE8004FF00003FB71FB79184607F10807BD4662
:101CF80080BD00BF80B485B000AF0346FB714FF0D4
:101D08000003FB604FF46053C4F202031B68FB60DE
:101D1800FB6823F0F803FB60FB794FEAC303FA681A
:101D28001343FB604FF46053C4F20203FA681A606D
:101D380007F11407BD4680BC704700BF80B483B06C
:101D480000AF0346FB714FF00003C4F24723FA7952
:101D58001A6007F10C07BD4680BC704780B483B099
:101D680000AF0346FB7143F67003C4F202034FF061
:101D780000021A7043F67003C4F202034FF0000227
:101D88001A70FB79012B02D0042B08D00FE043F620
:101D98007003C4F202034FF001021A7008E043F620
:101DA8007003C4F202034FF005021A7000E000BF8E
:101DB80007F10C07BD4680BC704700BF80B483B0F4
:101DC80000AF0346FB714FF46863C4F24723FA7906
:101DD8001A6007F10C07BD4680BC704780B485B017
:101DE80000AFF860B9607A603B604FF46053C4F2AA
:101DF80002037A684FEA8211BA6811433A684FEAD7
:101E0800520202F1FF324FEA02421143FA681143CB
:101E1800BA694FEA02620A435A6007F11407BD46DD
:101E280080BC704780B483B000AF0346FB714FF0AD
:101E38006003C4F24723FA791A6007F10C07BD461C
:101E480080BC704780B483B000AF786039604FF4CD
:101E58006053C4F202037A684FEA82113A684FEA83
:101E680002720A43C3F8842007F10C07BD4680BC00
:101E7800704700BF80B483B000AF0346FB714FF0DA
:101E88006803C4F24723FA791A6007F10C07BD46C4
:101E980080BC704780B483B000AF0346FB714FF03D
:101EA8004C03C4F24723FA791A6007F10C07BD46C0
:101EB80080BC704780B485B000AF786039604FF05F
:101EC8000003FB604FF46053C4F202039B68FB609D
:101ED800FB6823F0EC63FB607A683B681343FA689D
:101EE8001343FB604FF46053C4F20203FA689A602C
:101EF80007F11407BD4680BC704700BF80B485B0A9
:101F080000AF786039604FF00003FB604FF4605316
:101F1800C4F202039B68FB60FB6823F07843FB6014
:101F28007A683B681343FA681343FB604FF46053C5
:101F3800C4F20203FA689A6007F11407BD4680BC30
:101F4800704700BF80B485B000AF78604FF00003E1
:101F5800FB604FF46053C4F202039B68FB60FB68AC
:101F680023F00303FB60FA687B681343FB604FF4BC
:101F78006053C4F20203FA689A6007F11407BD4679
:101F880080BC704780B400AF4FF46053C4F20203C2
:101F98009B68DBB203F00C03DBB21846BD4680BC7D
:101FA800704700BF80B485B000AF78604FF0000381
:101FB800FB604FF46053C4F202039B68FB60FB684C
:101FC80023F0F003FB60FA687B681343FB604FF46F
:101FD8006053C4F20203FA689A6007F11407BD4619
:101FE80080BC704780B485B000AF78604FF00003C4
:101FF800FB604FF46053C4F202039B68FB60FB680C
:1020080023F4E053FB60FA687B681343FB604FF4EA
:102018006053C4F20203FA689A6007F11407BD46D8
:1020280080BC704780B485B000AF78604FF0000383
:10203800FB604FF46053C4F202039B68FB60FB68CB
:1020480023F46043FB607B684FEAC303FA681343D9
:10205800FB604FF46053C4F20203FA689A6007F118
:102068001407BD4680BC704780B489B000AF786063
:102078004FF00003BB614FF000037B614FF000039A
:10208800FB614FF002033B614FF00003FB604FF030
:102098000203BB604FF46053C4F202039B6803F071
:1020A8000C03BB61BB69042B0AD0082B0FD0002B93
:1020B80060D17A684FF41053C0F2F403136060E003
:1020C8007A684FF49053C0F27A03136059E04FF4E2
:1020D8006053C4F202035B6803F480034FEA93532E
:1020E800FB604FF46053C4F202035B6803F03F03E4
:1020F800BB60FB68002B14D04FF49053C0F27A03F6
:10210800BA68B3FBF2F24FF46053C4F202035968A1
:1021180047F6C0730B404FEA931303FB02F3FB61CE
:1021280013E04FF41053C0F2F403BA68B3FBF2F2B1
:102138004FF46053C4F20203596847F6C0730B406A
:102148004FEA931303FB02F3FB614FF46053C4F2AD
:1021580002035B6803F440334FEA134303F10103BE
:102168004FEA43033B61FA693B69B2FBF3F27B68D0
:102178001A6006E07A684FF41053C0F2F403136053
:1021880000BF4FF46053C4F202039B6803F0F003EE
:10219800BB61BB694FEA1313BB6140F21803C2F27B
:1021A8000003BA699B181B78DBB27B617B681A68ED
:1021B8007B6922FA03F27B685A604FF46053C4F2D9
:1021C80002039B6803F4E053BB61BB694FEA9323A6
:1021D800BB6140F21803C2F20003BA699B181B786E
:1021E800DBB27B617B685A687B6922FA03F27B6801
:1021F8009A604FF46053C4F202039B6803F460438F
:10220800BB61BB694FEA5333BB6140F21803C2F2AA
:102218000003BA699B181B78DBB27B617B685A683C
:102228007B6922FA03F27B68DA6007F12407BD466E
:1022380080BC704780B485B000AF78604FF0000371
:10224800FB607B6803F44073B3F5407F17D14FF40C
:102258006053C4F202039B68FB60FB6823F4F81325
:10226800FB607B6823F0704323F44073FA681343E0
:10227800FB604FF46053C4F20203FA689A604FF4AB
:102288006053C4F202034FF46052C4F20202116FA9
:102298007A684FEA02524FEA12520A431A6707F164
:1022A8001407BD4680BC704780B483B000AF0346B6
:1022B800FB7140F63C63C4F24723FA791A6007F1D0
:1022C8000C07BD4680BC704780B483B000AF03469E
:1022D800FB714FF46463C4F24723FA791A6007F17B
:1022E8000C07BD4680BC704780B483B000AF7860EF
:1022F8004FF4AE73C4F247237A681A6007F10C07EB
:10230800BD4680BC704700BF80B483B000AF786022
:102318000B46FB70FB78002B0CD04FF46053C4F2D3
:1023280002034FF46052C4F20202116B7A680A4346
:102338001A630DE04FF46053C4F202034FF4605285
:10234800C4F20202116B7A686FEA02020A401A6349
:1023580007F10C07BD4680BC704700BF80B483B04E
:1023680000AF78600B46FB70FB78002B0CD04FF465
:102378006053C4F202034FF46052C4F20202516B7C
:102388007A680A435A630DE04FF46053C4F20203BB
:102398004FF46052C4F20202516B7A686FEA02028B
:1023A8000A405A6307F10C07BD4680BC704700BF5E
:1023B80080B483B000AF78600B46FB70FB78002BCD
:1023C8000CD04FF46053C4F202034FF46052C4F2CD
:1023D8000202916B7A680A439A630DE04FF46053E6
:1023E800C4F202034FF46052C4F20202916B7A689D
:1023F8006FEA02020A409A6307F10C07BD4680BCE7
:10240800704700BF80B483B000AF78600B46FB70A4
:10241800FB78002B0CD04FF46053C4F202034FF446
:102428006052C4F20202116C7A680A431A640DE021
:102438004FF46053C4F202034FF46052C4F2020234
:10244800116C7A686FEA02020A401A6407F10C07F5
:10245800BD4680BC704700BF80B483B000AF7860D1
:102468000B46FB70FB78002B0CD04FF46053C4F282
:1024780002034FF46052C4F20202516C7A680A43B4
:102488005A640DE04FF46053C4F202034FF46052F3
:10249800C4F20202516C7A686FEA02020A405A6476
:1024A80007F10C07BD4680BC704700BF80B483B0FD
:1024B80000AF78600B46FB70FB78002B0CD04FF414
:1024C8006053C4F202034FF46052C4F2020211696D
:1024D8007A680A431A610DE04FF46053C4F20203AC
:1024E8004FF46052C4F2020211697A686FEA02027C
:1024F8000A401A6107F10C07BD4680BC704700BF4F
:1025080080B483B000AF78600B46FB70FB78002B7B
:102518000CD04FF46053C4F202034FF46052C4F27B
:10252800020251697A680A435A610DE04FF4605318
:10253800C4F202034FF46052C4F2020251697A688D
:102548006FEA02020A405A6107F10C07BD4680BCD7
:10255800704700BF80B483B000AF78600B46FB7053
:10256800FB78002B0CD04FF46053C4F202034FF4F5
:102578006052C4F2020291697A680A439A610DE0D6
:102588004FF46053C4F202034FF46052C4F20202E3
:1025980091697A686FEA02020A409A6107F10C07AA
:1025A800BD4680BC704700BF80B483B000AF786080
:1025B8000B46FB70FB78002B0CD04FF46053C4F231
:1025C80002034FF46052C4F20202116A7A680A43A5
:1025D8001A620DE04FF46053C4F202034FF46052E4
:1025E800C4F20202116A7A686FEA02020A401A62A9
:1025F80007F10C07BD4680BC704700BF80B483B0AC
:1026080000AF78600B46FB70FB78002B0CD04FF4C2
:102618006053C4F202034FF46052C4F20202516ADA
:102628007A680A435A620DE04FF46053C4F2020319
:102638004FF46052C4F20202516A7A686FEA0202E9
:102648000A405A6207F10C07BD4680BC704700BFBC
:1026580080B483B000AF78600B46FB70FB78002B2A
:102668000CD04FF46053C4F202034FF46052C4F22A
:102678000202116D7A680A431A650DE04FF460533F
:10268800C4F202034FF46052C4F20202116D7A6878
:102698006FEA02020A401A6507F10C07BD4680BCC2
:1026A800704700BF80B483B000AF78600B46FB7002
:1026B800FB78002B0CD04FF46053C4F202034FF4A4
:1026C8006052C4F20202516D7A680A435A650DE0FD
:1026D8004FF46053C4F202034FF46052C4F2020292
:1026E800516D7A686FEA02020A405A6507F10C07D1
:1026F800BD4680BC704700BF80B483B000AF78602F
:102708000B46FB70FB78002B0CD04FF46053C4F2DF
:1027180002034FF46052C4F20202916D7A680A43D0
:102728009A650DE04FF46053C4F202034FF460520F
:10273800C4F20202916D7A686FEA02020A409A6551
:1027480007F10C07BD4680BC704700BF80B483B05A
:1027580000AF78600B46FB70FB78002B0CD04FF471
:102768006053C4F202034FF46052C4F20202116EC5
:102778007A680A431A660DE04FF46053C4F2020304
:102788004FF46052C4F20202116E7A686FEA0202D4
:102798000A401A6607F10C07BD4680BC704700BFA7
:1027A80080B483B000AF78600B46FB70FB78002BD9
:1027B8000CD04FF46053C4F202034FF46052C4F2D9
:1027C8000202516E7A680A435A660DE04FF460536C
:1027D800C4F202034FF46052C4F20202516E7A68E6
:1027E8006FEA02020A405A6607F10C07BD4680BC30
:1027F800704700BF80B483B000AF02460B46FA7141
:10280800BB71BB79002B0ED043F60D03C4F2020353
:1028180043F60D02C4F202021278D1B2FA790A43E1
:10282800D2B21A7010E043F60D03C4F2020343F665
:102838000D02C4F202021278D1B2FA796FEA0202EA
:10284800D2B20A40D2B21A7007F10C07BD4680BC5A
:10285800704700BF80B487B000AF0346FB714FF0EC
:102868000003FB604FF000037B614FF00003FB7433
:10287800FB794FEA5313DBB2FB60FB68012B06D1EF
:102888004FF46053C4F202031B687B610FE0FB68DE
:10289800022B06D14FF46053C4F202031B6F7B6115
:1028A80005E04FF46053C4F202035B6F7B61FB7970
:1028B80003F01F03FB60FB687A6922FA03F303F055
:1028C8000103002B03D04FF00103FB7402E04FF02B
:1028D8000003FB74FB7C184607F11C07BD4680BC4F
:1028E800704700BF80B400AF4FF46053C4F20203D6
:1028F8004FF46052C4F20202526F42F080725A677B
:10290800BD4680BC704700BF80B485B000AF0346A9
:10291800FB714FF00003FB734FF46053C4F20203E2
:10292800DA68FB791340002B03D04FF00103FB73E7
:1029380002E04FF00003FB73FB7B184607F1140716
:10294800BD4680BC704700BF80B483B000AF03466B
:10295800FB7143F60E03C4F20203FA791A7007F109
:102968000C07BD4680BC704780B400AF4FF470536D
:10297800C4F201034FF000021A604FF47053C4F21E
:1029880001034FF000025A604FF47053C4F2010380
:102998004FF000029A604FF47053C4F201034FF0F5
:1029A8000002DA604FF47053C4F201034FF6FF726D
:1029B800C0F27F025A61BD4680BC704780B485B0C2
:1029C80000AF78604FF00003FB604FF47053C4F21F
:1029D8000103FB607B689B79002B78D04FF4705320
:1029E800C4F201034FF47052C4F2010211687A680C
:1029F80012686FEA02020A401A604FF47053C4F278
:102A080001034FF47052C4F2010251687A681268E7
:102A18006FEA02020A405A607B681B79FA68D31889
:102A2800FB60FB68FA6811687A6812680A431A60E2
:102A38004FF47053C4F201034FF47052C4F2010210
:102A480091687A6812686FEA02020A409A604FF445
:102A58007053C4F201034FF47052C4F20102D168FA
:102A68007A6812686FEA02020A40DA607B685B796A
:102A7800102B1AD14FF47053C4F201034FF4705263
:102A8800C4F2010291687A6812680A439A604FF4A6
:102A98007053C4F201034FF47052C4F20102D168BA
:102AA8007A6812680A43DA601FE04FF47053C4F280
:102AB8000103FB607B685B79FA68D318FB60FB68ED
:102AC800FA6811687A6812680A431A600DE07B6830
:102AD8001B79FA68D318FB60FB68FA6811687A6892
:102AE80012686FEA02020A401A6007F11407BD462D
:102AF80080BC704780B483B000AF78607B684FF0CB
:102B080000021A607B684FF000021A717B684FF070
:102B18000C025A717B684FF000029A7107F10C079A
:102B2800BD4680BC704700BF80B483B000AF7860FA
:102B38004FF47053C4F201034FF47052C4F201020F
:102B480011697A680A431A6107F10C07BD4680BC0F
:102B5800704700BF80B485B000AF78604FF00003C5
:102B6800FB734FF47053C4F201035A697B68134036
:102B7800002B03D04FF00103FB7302E04FF000037A
:102B8800FB73FB7B184607F11407BD4680BC7047F2
:102B980080B483B000AF78604FF47053C4F201037F
:102BA8007A685A6107F10C07BD4680BC704700BFC0
:102BB80080B485B000AF78604FF00003FB734FF02E
:102BC8000003BB604FF47053C4F201031A687B68BA
:102BD8001340BB604FF47053C4F201035A697B6819
:102BE8001340002B06D0BB68002B03D04FF0010325
:102BF800FB7302E04FF00003FB73FB7B184607F101
:102C08001407BD4680BC704780B483B000AF7860BD
:102C18004FF47053C4F201037A685A6107F10C0744
:102C2800BD4680BC704700BF80B500AF4FF4804000
:102C38004FF00101FFF7E2FC4FF480404FF0000134
:102C4800FFF7DCFC80BD00BF80B483B000AF034653
:102C5800FB714FF46053C4F20103FA791A6007F16B
:102C68000C07BD4680BC704790B484B000AF0246E4
:102C78000B46FA71BB714FF00003FB60BB7903F0A0
:102C880003034FEA83034FF00F0202FA03F3FB60DA
:102C98004FF46053C4F20103BA794FEA9202D2B2F8
:102CA80010464FF46052C4F20102B9794FEA91011B
:102CB800C9B201F1020152F82110FA686FEA020262
:102CC800114000F1020243F822104FF46053C4F29D
:102CD8000103BA794FEA9202D2B210464FF4605219
:102CE800C4F20102B9794FEA9101C9B201F10201B6
:102CF80052F82110FC79BA7902F003024FEA8202F5
:102D080004FA02F2114300F1020243F8221007F11B
:102D18001007BD4690BC704780B483B000AF7860A0
:102D28004FF0DC03C4F227237A681A6007F10C0716
:102D3800BD4680BC704700BF80B483B000AF034677
:102D4800FB714FF48063C4F22723FA791A6007F104
:102D58000C07BD4680BC704780B483B000AF4FF00D
:102D68000003FB714FF46053C4F201031B6A03F4C0
:102D78008073002B03D04FF00103FB7102E04FF08A
:102D88000003FB71FB79184607F10C07BD4680BCB0
:102D9800704700BF80B582B000AF78607A684FF0A6
:102DA8000003C4F201039A420CD14FF001004FF026
:102DB8000101FFF723FC4FF001004FF00001FFF77E
:102DC8001DFCFFE07B68B3F1804F0CD14FF0010090
:102DD8004FF00101FFF7E8FB4FF001004FF0000151
:102DE800FFF7E2FBEEE07A684FF48063C4F2000379
:102DF8009A420CD14FF002004FF00101FFF7D4FBCB
:102E08004FF002004FF00001FFF7CEFBDAE07A68DE
:102E18004FF40063C4F200039A420CD14FF004004F
:102E28004FF00101FFF7C0FB4FF004004FF0000125
:102E3800FFF7BAFBC6E07A684FF44063C4F20003B8
:102E48009A420CD14FF008004FF00101FFF7ACFB9C
:102E58004FF008004FF00001FFF7A6FBB2E07A68D8
:102E68004FF48053C4F200039A420CD14FF0100083
:102E78004FF00101FFF798FB4FF010004FF00001F1
:102E8800FFF792FB9EE07A684FF4A053C4F2000368
:102E98009A420CD14FF020004FF00101FFF784FB5C
:102EA8004FF020004FF00001FFF77EFB8AE07A68C0
:102EB8004FF48063C4F201039A420CD14FF0020030
:102EC8004FF00101FFF79AFB4FF002004FF00001AD
:102ED800FFF794FB76E07A684FF48043C4F201036D
:102EE8009A420CD14FF480304FF00101FFF786FB76
:102EF8004FF480304FF00001FFF780FB62E07A6802
:102F08004FF48843C4F201039A420CD14FF40030C5
:102F18004FF00101FFF772FB4FF400304FF0000152
:102F2800FFF76CFB4EE07A684FF49043C4F201035C
:102F38009A420CD14FF480204FF00101FFF75EFB5D
:102F48004FF480204FF00001FFF758FB3AE07A6811
:102F58004FF4C053C4F200039A420CD14FF0400022
:102F68004FF00101FFF720FB4FF040004FF0000148
:102F7800FFF71AFB26E07A684FF4E053C4F2000327
:102F88009A420CD14FF080004FF00101FFF70CFB83
:102F98004FF080004FF00001FFF706FB12E07A685F
:102FA8004FF40053C4F200039A420BD14FF48070DF
:102FB8004FF00101FFF7F8FA4FF480704FF000016D
:102FC800FFF7F2FA07F10807BD4680BD80B485B067
:102FD80000AF786039604FF00003FB817B681B8885
:102FE800FB817A684FF00003C4F201039A421FD0B4
:102FF8007A684FF48063C4F201039A4218D07B6860
:10300800B3F1804F14D07A684FF48063C4F20003A0
:103018009A420DD07A684FF40063C4F200039A42D2
:1030280006D07A684FF44063C4F200039A4208D18C
:10303800FB8923F07003FB813B685A88FB891343A3
:10304800FB817A684FF48053C4F200039A420FD090
:103058007A684FF4A053C4F200039A4208D0FB895F
:1030680023F44073FB813B681A89FB891343FB8176
:103078007B68FA891A803B685A687B68DA623B6821
:103088001A887B681A857A684FF00003C4F2010336
:103098009A4206D07A684FF48063C4F201039A42D8
:1030A80004D13B689B7A1A467B681A867B684FF086
:1030B80001029A8207F11407BD4680BC704700BF21
:1030C80080B483B000AF78607B684FF0FF325A60FD
:1030D8007B684FF000021A807B684FF000021A816B
:1030E8007B684FF000025A807B684FF000029A72AA
:1030F80007F10C07BD4680BC704700BF80B483B0A1
:1031080000AF786013460A467A803B807B687A88ED
:103118001A857B683A889A8207F10C07BD4680BCFD
:10312800704700BF80B485B000AF78600B467B80E5
:103138004FF00003FB817B681B88FB81FB8923F030
:103148007003FB81FA897B881343FB817B68FA89CA
:103158001A8007F11407BD4680BC704780B483B05D
:1031680000AF786039607B683A685A6207F10C07EB
:10317800BD4680BC704700BF80B483B000AF7860A4
:1031880039607B683A68DA6207F10C07BD4680BC93
:10319800704700BF80B483B000AF78607B685B6A1B
:1031A800184607F10C07BD4680BC704780B483B051
:1031B80000AF78607B681B8D9BB2184607F10C073F
:1031C800BD4680BC704700BF80B483B000AF786054
:1031D8000B46FB70FB78002B08D07B681B889BB2E2
:1031E80043F002039AB27B681A8007E07B681B8869
:1031F8009BB223F002039AB27B681A8007F10C078E
:10320800BD4680BC704700BF80B483B000AF786013
:103218000B467B807B88002B08D07B681B889BB281
:1032280043F004039AB27B681A8007E07B681B8826
:103238009BB223F004039AB27B681A8007F10C074B
:10324800BD4680BC704700BF80B483B000AF7860D3
:103258000B46FB70FB78002B08D07B681B889BB261
:1032680043F080039AB27B681A8007E07B681B886A
:103278009BB223F080039AB27B681A8007F10C078F
:10328800BD4680BC704700BF80B483B000AF786093
:103298000B467B807B681B889BB223F008039AB29D
:1032A8007B681A807B681B889AB27B8813439AB222
:1032B8007B681A8007F10C07BD4680BC704700BFC9
:1032C80080B483B000AF78600B467B807B681B8836
:1032D8009BB223F440739AB27B681A807B681B8880
:1032E8009AB27B8813439AB27B681A8007F10C075D
:1032F800BD4680BC704700BF80B483B000AF786023
:103308000B46FB70FB78002B08D07B681B889BB2B0
:1033180043F001039AB27B681A8007E07B681B8838
:103328009BB223F001039AB27B681A8007F10C075D
:10333800BD4680BC704700BF80B485B000AF7860E0
:1033480039604FF000037B814FF00003FB814FF0A1
:103358000003BB817B681B8C9BB223F001039AB2EC
:103368007B681A847B681B8CFB817B689B88BB818C
:103378007B681B8B7B817B8923F070037B817B8936
:1033880023F003037B813B681A887B8913437B8185
:10339800FB8923F00203FB813B689A89FB8913436D
:1033A800FB813B685A88FB891343FB817A684FF09D
:1033B8000003C4F201039A4206D07A684FF480638E
:1033C800C4F201039A4223D1FB8923F00803FB814D
:1033D8003B68DA89FB891343FB81FB8923F00403EB
:1033E800FB813B689A88FB891343FB81BB8923F4E3
:1033F8008073BB81BB8923F40073BB813B681A8A45
:10340800BB891343BB813B685A8ABB891343BB8181
:103418007B68BA899A807B687A891A833B689A683C
:103428007B685A637B68FA891A8407F11407BD46DA
:1034380080BC704780B485B000AF786039604FF0C9
:1034480000037B814FF00003FB814FF00003BB8139
:103458007B681B8C9BB223F010039AB27B681A849A
:103468007B681B8CFB817B689B88BB817B681B8B83
:103478007B817B8923F4E0437B817B8923F4407340
:103488007B813B681B884FEA03239AB27B891343ED
:103498007B81FB8923F02003FB813B689B894FEAF2
:1034A80003139AB2FB891343FB813B685B884FEA9D
:1034B80003139AB2FB891343FB817A684FF0000328
:1034C800C4F201039A4206D07A684FF48063C4F2CA
:1034D80001039A422FD1FB8923F08003FB813B68CB
:1034E800DB894FEA03139AB2FB891343FB81FB89FB
:1034F80023F04003FB813B689B884FEA03139AB291
:10350800FB891343FB81BB8923F48063BB81BB899F
:1035180023F40063BB813B681B8A4FEA83039AB29A
:10352800BB891343BB813B685B8A4FEA83039AB22A
:10353800BB891343BB817B68BA899A807B687A8987
:103548001A833B689A687B689A637B68FA891A844D
:1035580007F11407BD4680BC704700BF80B485B032
:1035680000AF786039604FF000037B814FF00003B3
:10357800FB814FF00003BB817B681B8C9BB223F45B
:1035880080739AB27B681A847B681B8CFB817B688A
:103598009B88BB817B689B8B7B817B8923F0700335
:1035A8007B817B8923F003037B813B681A887B89B5
:1035B80013437B81FB8923F40073FB813B689B8960
:1035C8004FEA03239AB2FB891343FB813B685B886C
:1035D8004FEA03239AB2FB891343FB817A684FF0C1
:1035E8000003C4F201039A4206D07A684FF480635C
:1035F800C4F201039A422FD1FB8923F40063FB81B3
:103608003B68DB894FEA03239AB2FB891343FB81AA
:10361800FB8923F48063FB813B689B884FEA032383
:103628009AB2FB891343FB81BB8923F48053BB8186
:10363800BB8923F40053BB813B681B8A4FEA031301
:103648009AB2BB891343BB813B685B8A4FEA031379
:103658009AB2BB891343BB817B68BA899A807B681D
:103668007A899A833B689A687B68DA637B68FA8907
:103678001A8407F11407BD4680BC704780B485B032
:1036880000AF786039604FF00003BB814FF0000352
:103698007B814FF00003FB817B681B8C9BB223F47A
:1036A80080539AB27B681A847B681B8C7B817B6809
:1036B8009B88FB817B689B8BBB81BB8923F4E043A0
:1036C800BB81BB8923F44073BB813B681B884FEAED
:1036D80003239AB2BB891343BB817B8923F400532C
:1036E8007B813B689B894FEA03339AB27B891343FA
:1036F8007B813B685B884FEA03339AB27B8913432B
:103708007B817A684FF00003C4F201039A4206D025
:103718007A684FF48063C4F201039A420BD1FB89A3
:1037280023F48043FB813B681B8A4FEA83139AB2D8
:10373800FB891343FB817B68FA899A807B68BA8985
:103748009A833B689A687B681A647B687A891A84CA
:1037580007F11407BD4680BC704700BF80B483B032
:1037680000AF78607B684FF000021A807B684FF0EA
:1037780000025A807B684FF000029A807B684FF005
:1037880000029A607B684FF000029A817B684FF0D4
:103798000002DA817B684FF000021A827B684FF0E2
:1037A80000025A8207F10C07BD4680BC704700BF73
:1037B80080B485B000AF786013460A467A803B80B3
:1037C8004FF00003FB604FF000037B817B68FB60D8
:1037D800FB6803F11803FB607B884FF0010202FAD3
:1037E80003F37B817B681B8C9AB27B896FEA0303A6
:1037F8009BB213409AB27B681A847B88002B02D054
:103808007B88082B14D17B884FEA53039BB2FA6854
:10381800D318FB60FA68FB6819684FF68F730B4082
:103828001360FB68FA6811683A880A431A6019E05D
:103838007B88A3F104039BB24FEA53039BB2FA6857
:10384800D318FB60FA68FB68196848F6FF730B40E9
:103858001360FB68FA6811683A884FEA022292B24C
:103868000A431A6007F11407BD4680BC704700BFC1
:1038780080B483B000AF786039607B683A685A6377
:1038880007F10C07BD4680BC704700BF80B483B009
:1038980000AF786039607B683A689A6307F10C0773
:1038A800BD4680BC704700BF80B483B000AF78606D
:1038B80039607B683A68DA6307F10C07BD4680BC5B
:1038C800704700BF80B483B000AF786039607B6810
:1038D8003A681A6407F10C07BD4680BC704700BF00
:1038E80080B485B000AF78600B467B804FF0000352
:1038F800FB817B681B8BFB81FB8923F07003FB81B9
:10390800FA897B881343FB817B68FA891A8307F15C
:103918001407BD4680BC704780B485B000AF78609E
:103928000B467B804FF00003FB817B681B8BFB8180
:10393800FB8923F4E043FB817B884FEA03239AB297
:10394800FB891343FB817B68FA891A8307F1140703
:10395800BD4680BC704700BF80B485B000AF7860BA
:103968000B467B804FF00003FB817B689B8BFB81C0
:10397800FB8923F07003FB81FA897B881343FB8161
:103988007B68FA899A8307F11407BD4680BC7047A3
:1039980080B485B000AF78600B467B804FF00003A1
:1039A800FB817B689B8BFB81FB8923F4E043FB81D4
:1039B8007B884FEA03239AB2FB891343FB817B6818
:1039C800FA899A8307F11407BD4680BC704700BF87
:1039D80080B485B000AF78600B467B804FF0000361
:1039E800FB817B681B8BFB81FB8923F00803FB8130
:1039F800FA897B881343FB817B68FA891A8307F16C
:103A08001407BD4680BC704780B485B000AF7860AD
:103A18000B467B804FF00003FB817B681B8BFB818F
:103A2800FB8923F40063FB817B884FEA03239AB266
:103A3800FB891343FB817B68FA891A8307F1140712
:103A4800BD4680BC704700BF80B485B000AF7860C9
:103A58000B467B804FF00003FB817B689B8BFB81CF
:103A6800FB8923F00803FB81FA897B881343FB81D8
:103A78007B68FA899A8307F11407BD4680BC7047B2
:103A880080B485B000AF78600B467B804FF00003B0
:103A9800FB817B689B8BFB81FB8923F40063FB81A3
:103AA8007B884FEA03239AB2FB891343FB817B6827
:103AB800FA899A8307F11407BD4680BC704700BF96
:103AC80080B485B000AF78600B467B804FF0000370
:103AD800FB817B681B8BFB81FB8923F00403FB8143
:103AE800FA897B881343FB817B68FA891A8307F17B
:103AF8001407BD4680BC704780B485B000AF7860BD
:103B08000B467B804FF00003FB817B681B8BFB819E
:103B1800FB8923F48063FB817B884FEA03239AB2F5
:103B2800FB891343FB817B68FA891A8307F1140721
:103B3800BD4680BC704700BF80B485B000AF7860D8
:103B48000B467B804FF00003FB817B689B8BFB81DE
:103B5800FB8923F00403FB81FA897B881343FB81EB
:103B68007B68FA899A8307F11407BD4680BC7047C1
:103B780080B485B000AF78600B467B804FF00003BF
:103B8800FB817B689B8BFB81FB8923F48063FB8132
:103B98007B884FEA03239AB2FB891343FB817B6836
:103BA800FA899A8307F11407BD4680BC704700BFA5
:103BB80080B485B000AF78600B467B804FF000037F
:103BC800FB817B681B8BFB81FB8923F08003FB81D6
:103BD800FA897B881343FB817B68FA891A8307F18A
:103BE8001407BD4680BC704780B485B000AF7860CC
:103BF8000B467B804FF00003FB817B681B8BFB81AE
:103C0800FB894FEA43434FEA5343FB817B884FEAE2
:103C180003239AB2FB891343FB817B68FA891A83D1
:103C280007F11407BD4680BC704700BF80B485B05B
:103C380000AF78600B467B804FF00003FB817B6808
:103C48009B8BFB81FB8923F08003FB81FA897B88AE
:103C58001343FB817B68FA899A8307F11407BD46F1
:103C680080BC704780B485B000AF78600B467B801D
:103C78004FF00003FB817B689B8BFB81FB894FEA3C
:103C880043434FEA5343FB817B884FEA03239AB2AD
:103C9800FB891343FB817B68FA899A8307F1140730
:103CA800BD4680BC704700BF80B485B000AF786067
:103CB8000B467B804FF00003FB817B681B8CFB81EC
:103CC800FB8923F00203FB81FA897B881343FB817C
:103CD8007B68FA891A8407F11407BD4680BC7047CF
:103CE80080B485B000AF78600B467B804FF000034E
:103CF800FB817B681B8CFB81FB8923F00803FB811C
:103D0800FA897B881343FB817B68FA891A8407F157
:103D18001407BD4680BC704780B485B000AF78609A
:103D28000B467B804FF00003FB817B681B8CFB817B
:103D3800FB8923F02003FB817B884FEA03139AB2A7
:103D4800FB891343FB817B68FA891A8407F11407FE
:103D5800BD4680BC704700BF80B485B000AF7860B6
:103D68000B467B804FF00003FB817B681B8CFB813B
:103D7800FB8923F08003FB817B884FEA03139AB207
:103D8800FB891343FB817B68FA891A8407F11407BE
:103D9800BD4680BC704700BF80B485B000AF786076
:103DA8000B467B804FF00003FB817B681B8CFB81FB
:103DB800FB8923F40073FB817B884FEA03239AB2C3
:103DC800FB891343FB817B68FA891A8407F114077E
:103DD800BD4680BC704700BF80B485B000AF786036
:103DE8000B467B804FF00003FB817B681B8CFB81BB
:103DF800FB8923F40063FB817B884FEA03239AB293
:103E0800FB891343FB817B68FA891A8407F114073D
:103E1800BD4680BC704700BF80B485B000AF7860F5
:103E28000B467B804FF00003FB817B681B8CFB817A
:103E3800FB8923F40053FB817B884FEA03339AB252
:103E4800FB891343FB817B68FA891A8407F11407FD
:103E5800BD4680BC704700BF80B485B000AF7860B5
:103E680013460A467A803B804FF00003FB817B882B
:103E78004FF0010202FA03F3FB817B681B8C9AB2B4
:103E8800FB896FEA03039BB213409AB27B681A84DA
:103E98007B681B8C9AB239887B8801FA03F39BB242
:103EA80013439AB27B681A8407F11407BD4680BC95
:103EB800704700BF80B485B000AF786013460A46EB
:103EC8007A803B804FF00003FB817B884FF004022F
:103ED80002FA03F3FB817B681B8C9AB2FB896FEAB9
:103EE80003039BB213409AB27B681A847B681B8CCD
:103EF8009AB239887B8801FA03F39BB213439AB2CA
:103F08007B681A8407F11407BD4680BC704700BF60
:103F180080B582B000AF786039603B681B88002BA1
:103F28000FD13B6859883B689A883B681B89786839
:103F380000F0C4FC3B68DB887868194600F0ECF8B0
:103F480036E03B681B88042B0FD13B6859883B68D7
:103F58009A883B681B89786800F0F0FC3B68DB882E
:103F68007868194600F0F4F822E03B681B88082BB3
:103F78000FD13B6859883B689A883B681B897868E9
:103F880000F02AFD3B68DB887868194600F0FEF8E7
:103F98000EE03B6859883B689A883B681B897868BB
:103FA80000F060FD3B68DB887868194600F00AF984
:103FB80007F10807BD4680BD80B483B000AF7860C4
:103FC8007B684FF000021A807B684FF000025A802D
:103FD8007B684FF001029A807B684FF00002DA801C
:103FE8007B684FF000021A8107F10C07BD4680BCC0
:103FF800704700BF80B584B000AF786039604FF07B
:104008000003FB814FF00103BB813B685B88002BF9
:1040180003D14FF00203FB8102E04FF00003FB8164
:104028003B689B88012B03D14FF00203BB8102E060
:104038004FF00103BB813B681B88002B1CD13B68F8
:1040480059883B689A883B681B89786800F036FC79
:104058003B68DB887868194600F05EF83B681B8986
:10406800F989BA89786800F069FC3B68DB88786868
:10407800194600F06DF81BE03B6859883B689A8840
:104088003B681B89786800F059FC3B68DB887868D6
:10409800194600F05DF83B681B89F989BA89786888
:1040A80000F00CFC3B68DB887868194600F034F8AF
:1040B80007F11007BD4680BD80B483B000AF7860BB
:1040C8007B685B6B184607F10C07BD4680BC7047E0
:1040D80080B483B000AF78607B689B6B184607F1AB
:1040E8000C07BD4680BC704780B483B000AF7860D1
:1040F8007B68DB6B184607F10C07BD4680BC704730
:1041080080B483B000AF78607B681B6C184607F1F9
:104118000C07BD4680BC704780B483B000AF7860A0
:104128000B467B807B681B8B9BB223F00C039AB2F7
:104138007B681A837B681B8B9AB27B8813439AB27D
:104148007B681A8307F10C07BD4680BC704700BF27
:1041580080B483B000AF78600B467B807B681B8B94
:104168009BB223F440639AB27B681A837B681B8BEB
:104178009AB27B884FEA03239BB213439AB27B68B7
:104188001A8307F10C07BD4680BC704780B483B022
:1041980000AF78600B467B807B689B8B9BB223F0DB
:1041A8000C039AB27B689A837B689B8B9AB27B8854
:1041B80013439AB27B689A8307F10C07BD4680BC0B
:1041C800704700BF80B483B000AF78600B467B8037
:1041D8007B689B8B9BB223F440639AB27B689A837B
:1041E8007B689B8B9AB27B884FEA03239BB213436D
:1041F8009AB27B689A8307F10C07BD4680BC70476A
:1042080080B483B000AF786039603B681A883B6837
:104218005B8813439AB23B689B8813439AB23B6806
:10422800DB8813439AB23B681B8913439AB23B68F5
:104238005B8913439AB23B689B8913439AB27B68A4
:10424800A3F8442007F10C07BD4680BC704700BFA7
:1042580080B483B000AF78607B684FF000021A80AA
:104268007B684FF000025A807B684FF000029A800A
:104278007B684FF00002DA807B684FF000021A81F9
:104288007B684FF000025A817B684FF000029A81E8
:1042980007F10C07BD4680BC704700BF80B483B0EF
:1042A80000AF78600B46FB70FB78002B0CD07B6866
:1042B800B3F844309BB26FEA43436FEA53439AB270
:1042C8007B68A3F844200BE07B68B3F844309BB2CA
:1042D8004FEA43434FEA53439AB27B68A3F844201A
:1042E80007F10C07BD4680BC704700BF80B483B09F
:1042F80000AF78600B46FB70FB78002B08D07B681A
:104308009B889BB243F004039AB27B689A8007E0CB
:104318007B689B889BB223F004039AB27B689A80DF
:1043280007F10C07BD4680BC704700BF80B483B05E
:1043380000AF78600B46FB70FB78002B08D07B68D9
:104348009B889BB243F001039AB27B689A8007E08E
:104358007B689B889BB223F001039AB27B689A80A2
:1043680007F10C07BD4680BC704700BF80B483B01E
:1043780000AF786013460A467A807B707B78002B02
:1043880008D07B689B899AB27B8813439AB27B6872
:104398009A810AE07B689B899AB27B886FEA03035B
:1043A8009BB213409AB27B689A8107F10C07BD460D
:1043B80080BC704780B483B000AF78600B467B80C8
:1043C8007B687A889A8207F10C07BD4680BC7047E3
:1043D80080B485B000AF78600B467B804FF0000357
:1043E800FB737B681B8A9AB27B8813409BB2002BB5
:1043F80003D04FF00103FB7302E04FF00003FB739F
:10440800FB7B184607F11407BD4680BC704700BF08
:1044180080B483B000AF78600B467B807B886FEAFE
:1044280003039AB27B681A8207F10C07BD4680BC69
:10443800704700BF80B485B000AF78600B467B80C2
:104448004FF00003FB734FF00003BB814FF00003F4
:104458007B817B681B8A9AB27B881340BB817B680F
:104468009B899AB27B8813407B81BB89002B06D03D
:104478007B89002B03D04FF00103FB7302E04FF060
:104488000003FB73FB7B184607F11407BD4680BC8D
:10449800704700BF80B483B000AF78600B467B8064
:1044A8007B886FEA03039AB27B681A8207F10C07CC
:1044B800BD4680BC704700BF80B483B000AF786051
:1044C80013460A467A803B807A883B8813439AB21F
:1044D8007B68A3F8482007F10C07BD4680BC7047ED
:1044E80080B483B000AF786013460A467A807B7048
:1044F8007B78002B08D07B689B899AB27B88134312
:104508009AB27B689A810AE07B689B899AB27B8819
:104518006FEA03039BB213409AB27B689A8107F152
:104528000C07BD4680BC704780B483B000AF78608C
:104538000B46FB70FB78002B08D07B689B889BB2EE
:1045480043F008039AB27B689A8007E07B689B88EF
:104558009BB223F008039AB27B689A8007F10C0794
:10456800BD4680BC704700BF80B483B000AF7860A0
:104578007B681B899BB223F007039AB27B681A8178
:1045880007F10C07BD4680BC704700BF80B582B0FC
:1045980000AF78600B467B807B887868194600F00E
:1045A8007DF87B681B899BB243F007039AB27B684E
:1045B8001A8107F10807BD4680BD00BF80B584B0E9
:1045C80000AFF86079813A81FB807B89602B08D144
:1045D8003A89FB88F86811464FF0010200F0AEF9FD
:1045E80007E03A89FB88F86811464FF0010200F0AD
:1045F80065F97B89F868194600F050F8FB681B8953
:104608009BB243F007039AB2FB681A8107F11007BF
:10461800BD4680BD80B586B000AFF86079813A812B
:10462800FB804FF00003FB8279893A89FB88F868A0
:1046380000F0A4F8FB681B89FB82FB8A23F00703C0
:10464800FB82FB8A43F00703FB82FB8A23F070039B
:10465800FB82FB8A43F07003FB82FB68FA8A1A81AB
:1046680007F11807BD4680BD80B584B000AFF8607B
:1046780079813A81FB8079893A89FB88F86800F06A
:104688007DF8FB681B899BB243F480439AB2FB68B0
:104698001A8107F11007BD4680BD00BF80B485B000
:1046A80000AF78600B467B804FF00003FB817B688E
:1046B8001B89FB81FB8923F07003FB81FA897B88C6
:1046C8001343FB817B68FA891A8107F11407BD46F9
:1046D80080BC704780B483B000AF78600B467B80A5
:1046E8007B689B889BB223F070039AB27B689A80A0
:1046F8007B689B889AB27B8813439AB27B689A80BE
:1047080007F10C07BD4680BC704700BF80B483B07A
:1047180000AF78600B467B807B681B899BB223F0D7
:1047280007039AB27B681A817B681B899AB27B88D7
:1047380013439AB27B681A8107F10C07BD4680BC07
:10474800704700BF80B483B000AF78600B467B80B1
:104758007B681B899BB223F080039AB27B681A811D
:104768007B681B899AB27B8813439AB27B681A814B
:1047780007F10C07BD4680BC704700BF80B487B006
:1047880000AFF86079813A81FB804FF00003FB822B
:10479800FB681B89FB82FB8ADBB2FB82FB884FEA42
:1047A80003239AB23B8913439AB27B8913439AB283
:1047B800FB8A1343FB82FB68FA8A1A8107F11C07FC
:1047C800BD4680BC704700BF80B487B000AFF860BA
:1047D80079813A81FB804FF00003FB824FF00003A0
:1047E800BB824FF000037B82FB681B89FB82FB685E
:1047F8001B8BBB82FB681B8C7B82FB8A23F0070325
:10480800FB82FA8A7B891343FB82BB8A23F44073B9
:1048180023F00303BB82BB8A43F4807343F0010394
:10482800BB827B8A23F022037B82FB884FEA031337
:104838009AB23B8913439AB27B8A13437B82FB6803
:10484800FA8A1A81FB68BA8A1A83FB687A8A1A84F8
:1048580007F11C07BD4680BC704700BF80B483B019
:1048680000AF78600B46FB70FB78002B08D07B68A4
:104878009B889BB243F080039AB27B689A8007E0DA
:104888007B689B889BB223F080039AB27B689A80EE
:1048980007F10C07BD4680BC704700BF80B483B0E9
:1048A80000AF78600B467B807B687A88A3F850203D
:1048B80007F10C07BD4680BC704700BF80B487B0C5
:1048C80000AFF86079813A81FB804FF00003FB82EA
:1048D8004FF00003BB82FB681B8C9BB223F00103E3
:1048E8009AB2FB681A84FB681B8BFB82FB681B8CE3
:1048F800BB82FB8A23F0F303FB82FB884FEA031396
:104908009AB23B8913439AB2FB8A1343FB82BB8A50
:1049180023F00A03BB827A89BB8A13439BB243F014
:104928000103BB82FB68FA8A1A83FB68BA8A1A8475
:1049380007F11C07BD4680BC704700BF80B487B034
:1049480000AFF86079813A81FB804FF00003FB8269
:104958004FF00003BB824FF000037B82FB681B8C87
:104968009BB223F010039AB2FB681A84FB681B8B76
:10497800FB82FB681B8CBB827B894FEA03137B821B
:10498800FB8A23F440734FEA03534FEA1353FB8225
:10499800FB884FEA03339AB2FB8A1343FB823B89B5
:1049A8004FEA03239AB2FB8A1343FB82BB8A23F0A4
:1049B800A003BB827A8ABB8A13439BB243F01003DD
:1049C800BB82FB68FA8A1A83FB68BA8A1A8407F1E1
:1049D8001C07BD4680BC704780B487B000AFF86044
:1049E80079813A81FB804FF00003FB824FF000038E
:1049F800BB824FF000037B82FB681B8C9BB223F4C5
:104A080080739AB2FB681A84FB689B8BFB82FB68F5
:104A18001B8CBB827B894FEA03237B82FB8A23F0B2
:104A2800F303FB82FB884FEA03139AB23B891343D3
:104A38009AB2FB8A1343FB82BB8A23F42063BB82AE
:104A48007A8ABB8A13439BB243F48073BB82FB68A8
:104A5800FA8A9A83FB68BA8A1A8407F11C07BD464A
:104A680080BC704780B487B000AFF86079813A8124
:104A7800FB804FF00003FB824FF00003BB824FF036
:104A880000037B82FB681B8C9BB223F480539AB291
:104A9800FB681A84FB689B8BFB82FB681B8CBB82C0
:104AA8007B894FEA03337B82FB8A23F440734FEA06
:104AB80003534FEA1353FB823B894FEA03239AB20D
:104AC800FB8A1343FB82FB884FEA03339AB2FB8AC3
:104AD8001343FB82BB8A23F400534FEA43434FEA54
:104AE8005343BB827A8ABB8A13439BB243F48053F5
:104AF800BB82FB68FA8A9A83FB68BA8A1A8407F130
:104B08001C07BD4680BC7047002100F004B80D4B5F
:104B18005B58435004310C480C4B42189A42FFF43E
:104B2800F6AF0B4A00F003B8002342F8043B094BE8
:104B38009A42FFF4F9AFFBF709FE00F09DF8FBF786
:104B480059FC70472C510008000000205404002034
:104B58005804002080040020FFF7FEBF2DE9F04133
:104B6800274C2568D5F8484184B00746002C41D029
:104B780066681F2E1CDD234810B94FF0FF301FE078
:104B88004FF4C870039102920193AFF30080039928
:104B9800029A019B04460028EFD0D5F8486100200E
:104BA80060602660C5F84841C4F88801C4F88C01E3
:104BB800656847B9A81C013544F8201065600020D5
:104BC80004B0BDE8F081D4F88861012004EB8508C1
:104BD80000FA05F00643022FC8F88820C4F8886157
:104BE800C8F80831E6D1D4F88C3143EA0002C4F899
:104BF8008C21DFE705F5A674C5F84841B8E700BF82
:104C0800F85000080000000008B50021044600F034
:104C18001DF9044B1868C16B01B18847204600F0A4
:104C280077FA00BFF850000870B5114B114C181BEB
:104C3800811018D004EB81044E1E354654F8042D1B
:104C480006F00106904775B126B154F8043D98471F
:104C5800013D08D054F8040D8047013D54F8041D67
:104C68008847013DF6D1BDE8704000F04BBA00BF5F
:104C78002C51000828510008F8B5204F204C381B4B
:104C8800871017D07A1E2368012502F0010698477D
:104C9800AF420FD02EB154F8041F02258847AF4207
:104CA80008D0606880470235A268261D90470834FE
:104CB800AF42F6D1134F144C00F01EFA3B1B9F1065
:104CC80018D07D1E216805F0010601258847AF42EE
:104CD80011D02EB154F8040F02258047AF420BD0F3
:104CE800626890470235A368261D98470834AF428A
:104CF800F6D1F8BDF8BDF8BDF8BD00BF20510008D9
:104D0800205100082851000820510008F0B48407F9
:104D1800034600F08E80541E002A00F08880E507C4
:104D2800CEB211D41A46671E02F8016B1346154617
:104D380092070FD0002C7AD003F8016B9A073C46F3
:104D48001D4607D0013CEDE7034603F8016B9A07BF
:104D58001D46F7D1032C52D9CEB246EA06270F2CAE
:104D680047EA07432DD9A4F1100217460F2FC2F3C3
:104D780000162B606B60AB60EB6005F1100216D972
:104D88003EB1103F136053609360D36010320F2F11
:104D98000DD9203F02F11006136053609360D36071
:104DA800136153619361D36120320F2FF1D8A4F1BD
:104DB800100222F00F0204F00F041032032C1544E5
:104DC8001DD9271F3E462A46032E42F8043BC7F347
:104DD80080070DD927B1043E032E42F8043B07D9BA
:104DE8001746083E47F8043B53603A1D032EF7D890
:104DF800231F23F00302131D04F00304ED18B4B1BC
:104E08002B46C9B203F8011B2C19ED436219A342C2
:104E180002F001050BD01DB103F8011BA34206D017
:104E28001A4602F8011B5970531CA342F8D1F0BC72
:104E38007047054614468DE7024B13B1024800F04F
:104E480049B9704700000000314C00082DE9F04FC7
:104E58009F4B87B01A68049002F5A47003920D4620
:104E680005904FF0010A0399DDF81490D1F84841F4
:104E7800002C43D06268B2F1010838D404F1880BE1
:104E88001F320BEB820308F0010C002D00F08C8020
:104E98005BF82260AE4200F087801E1F08F1FF37E2
:104EA800B8F1000F23D0BCF1000F0BD0002D00F09B
:104EB800A28053F8043CAB4200F09D80013F043EC1
:104EC8007B1C14D0B846E5B13768AF4219D008F159
:104ED800FF37A6F10408002D3FD056F8046CAE4207
:104EE8003BD0A8F1040607F1FF38002FEBD140F2C0
:104EF8000002C0F20002002A40F0DA8007B0BDE8E4
:104F0800F08F6168CBEB0602A0184F1E474550F89A
:104F1800783C00F09280002240F8782C002BD6D004
:104F2800D4F8881167680AFA08F008423AD0D4F829
:104F38008C21104240F09780049856F8801C9847BE
:104F48006368BB428FD1D9F80010A1428BD108F118
:104F5800FF37A6F10408002DBFD16368CBEB08002A
:104F6800591E2218B94252F8783C69D0002642F8F6
:104F7800786C002BB5D0D4F8880166680AFA07F275
:104F8800024236D0D4F88C110A4270D058F8800CFE
:104F980098476368B3427FF466AFD9F80000A0422F
:104FA8009FD060E79847CBE76268CBEB0300561EBB
:104FB8002118464551F8782C70D0002041F8780C1B
:104FC800002A3FF46AAFD4F8880166680AFA08F143
:104FD800014237D0D4F88C01014255D153F8801CD6
:104FE80004980293CDF804C09047029BDDF804C0F2
:104FF8002FE09847CDE76168CBEB06002218481EE2
:10500800B84252F8783C4CD0002142F8781C002B6A
:105018003FF454AFD4F88801D4F804800AFA07F2B0
:10502800024229D19847636843457FF41CAFD9F8F9
:105038000000A0423FF442AF15E7C4F804806DE7D2
:10504800676096E70293CDF804C09047029BDDF8AD
:1050580004C06268B2427FF406AFD9F80010A142DA
:105068003FF41BAFFFE656F8800C984768E70498B2
:1050780058F8801C98478CE7D4F88C110A4212D053
:1050880056F8800C9847CEE753F8800C0293CDF879
:1050980004C09047029BDDF804C0DAE7C4F8048036
:1050A8008EE76760B3E7049856F8801C9847BAE71C
:1050B800616849B9236843B12046C9F80030AFF3A5
:1050C8000080D9F80040D3E62368A1461C46CFE605
:1050D800F85000080146002002460346FFF73EBD8F
:1050E800010000F000100020004000804300000094
:1050F8002800002000000000F8B500BFF8BC08BC7C
:105108009E467047F8B500BFF8BC08BC9E4670477D
:08511800C4B0FF7F010000009C
:08512000414E0008AD0100083A
:0451280089010008F1
:10512C0000000000007A030A0000000000000000EC
:10513C000102030406070809000000000102030431
:10514C0001020304060708090000000014030020F4
:10515C007C030020E403002000000000000000009D
:10516C000000000000000000000000000000000033
:10517C00000000000000000000000000F4500008D7
:10518C000000000000000000000000000000000013
:10519C000000000000000000000000000000000003
:1051AC0000000000000000000000000000000000F3
:1051BC0000000000000000000000000000000000E3
:1051CC0000000000000000000000000000000000D3
:1051DC0000000000000000000000000000000000C3
:1051EC0000000000000000000000000000000000B3
:1051FC0001000000000000000E33CDAB34126DE650
:10520C00ECDE05000B0000000000000000000000B8
:10521C000000000000000000000000000000000082
:10522C000000000000000000000000000000000072
:10523C000000000000000000000000000000000062
:10524C000000000000000000000000000000000052
:04557C0028000020E3
:045580000000000027
:0400000508004B1193
:00000001FF
